{
  "_format": "hh-sol-artifact-1",
  "contractName": "KKC",
  "sourceName": "contracts/KKC.sol",
  "abi": [
    {
      "inputs": [
        {
          "internalType": "address payable",
          "name": "_ownerWallet",
          "type": "address"
        }
      ],
      "stateMutability": "nonpayable",
      "type": "constructor"
    },
    {
      "anonymous": false,
      "inputs": [
        {
          "indexed": true,
          "internalType": "address",
          "name": "owner",
          "type": "address"
        },
        {
          "indexed": true,
          "internalType": "address",
          "name": "approved",
          "type": "address"
        },
        {
          "indexed": true,
          "internalType": "uint256",
          "name": "tokenId",
          "type": "uint256"
        }
      ],
      "name": "Approval",
      "type": "event"
    },
    {
      "anonymous": false,
      "inputs": [
        {
          "indexed": true,
          "internalType": "address",
          "name": "owner",
          "type": "address"
        },
        {
          "indexed": true,
          "internalType": "address",
          "name": "operator",
          "type": "address"
        },
        {
          "indexed": false,
          "internalType": "bool",
          "name": "approved",
          "type": "bool"
        }
      ],
      "name": "ApprovalForAll",
      "type": "event"
    },
    {
      "anonymous": false,
      "inputs": [
        {
          "indexed": false,
          "internalType": "address",
          "name": "_to",
          "type": "address"
        },
        {
          "indexed": false,
          "internalType": "uint256",
          "name": "_amount",
          "type": "uint256"
        }
      ],
      "name": "BatchMintFinished",
      "type": "event"
    },
    {
      "anonymous": false,
      "inputs": [
        {
          "indexed": true,
          "internalType": "address",
          "name": "previousOwner",
          "type": "address"
        },
        {
          "indexed": true,
          "internalType": "address",
          "name": "newOwner",
          "type": "address"
        }
      ],
      "name": "OwnershipTransferred",
      "type": "event"
    },
    {
      "anonymous": false,
      "inputs": [
        {
          "indexed": false,
          "internalType": "address",
          "name": "account",
          "type": "address"
        }
      ],
      "name": "Paused",
      "type": "event"
    },
    {
      "anonymous": false,
      "inputs": [
        {
          "indexed": false,
          "internalType": "address",
          "name": "_to",
          "type": "address"
        },
        {
          "indexed": false,
          "internalType": "uint256",
          "name": "_amount",
          "type": "uint256"
        }
      ],
      "name": "PresaleNFTsFinished",
      "type": "event"
    },
    {
      "anonymous": false,
      "inputs": [
        {
          "indexed": true,
          "internalType": "address",
          "name": "from",
          "type": "address"
        },
        {
          "indexed": true,
          "internalType": "address",
          "name": "to",
          "type": "address"
        },
        {
          "indexed": true,
          "internalType": "uint256",
          "name": "tokenId",
          "type": "uint256"
        }
      ],
      "name": "Transfer",
      "type": "event"
    },
    {
      "anonymous": false,
      "inputs": [
        {
          "indexed": false,
          "internalType": "address",
          "name": "account",
          "type": "address"
        }
      ],
      "name": "Unpaused",
      "type": "event"
    },
    {
      "inputs": [
        {
          "internalType": "address",
          "name": "_to",
          "type": "address"
        },
        {
          "internalType": "uint256",
          "name": "_amount",
          "type": "uint256"
        }
      ],
      "name": "BatchMint",
      "outputs": [],
      "stateMutability": "nonpayable",
      "type": "function"
    },
    {
      "inputs": [
        {
          "internalType": "address",
          "name": "_to",
          "type": "address"
        },
        {
          "internalType": "uint256",
          "name": "_amount",
          "type": "uint256"
        }
      ],
      "name": "PresaleNFTs",
      "outputs": [],
      "stateMutability": "payable",
      "type": "function"
    },
    {
      "inputs": [
        {
          "internalType": "address",
          "name": "to",
          "type": "address"
        },
        {
          "internalType": "uint256",
          "name": "tokenId",
          "type": "uint256"
        }
      ],
      "name": "approve",
      "outputs": [],
      "stateMutability": "nonpayable",
      "type": "function"
    },
    {
      "inputs": [
        {
          "internalType": "address",
          "name": "owner",
          "type": "address"
        }
      ],
      "name": "balanceOf",
      "outputs": [
        {
          "internalType": "uint256",
          "name": "",
          "type": "uint256"
        }
      ],
      "stateMutability": "view",
      "type": "function"
    },
    {
      "inputs": [],
      "name": "getAllTokensList",
      "outputs": [
        {
          "internalType": "uint256[]",
          "name": "",
          "type": "uint256[]"
        }
      ],
      "stateMutability": "view",
      "type": "function"
    },
    {
      "inputs": [
        {
          "internalType": "uint256",
          "name": "tokenId",
          "type": "uint256"
        }
      ],
      "name": "getApproved",
      "outputs": [
        {
          "internalType": "address",
          "name": "",
          "type": "address"
        }
      ],
      "stateMutability": "view",
      "type": "function"
    },
    {
      "inputs": [],
      "name": "getLastTokenId",
      "outputs": [
        {
          "internalType": "uint256",
          "name": "",
          "type": "uint256"
        }
      ],
      "stateMutability": "view",
      "type": "function"
    },
    {
      "inputs": [],
      "name": "getPricePerNFT",
      "outputs": [
        {
          "internalType": "uint256",
          "name": "",
          "type": "uint256"
        }
      ],
      "stateMutability": "view",
      "type": "function"
    },
    {
      "inputs": [
        {
          "internalType": "address",
          "name": "_owner",
          "type": "address"
        }
      ],
      "name": "getTokensListOwnedByUser",
      "outputs": [
        {
          "internalType": "uint256[]",
          "name": "",
          "type": "uint256[]"
        }
      ],
      "stateMutability": "view",
      "type": "function"
    },
    {
      "inputs": [
        {
          "internalType": "address",
          "name": "owner",
          "type": "address"
        },
        {
          "internalType": "address",
          "name": "operator",
          "type": "address"
        }
      ],
      "name": "isApprovedForAll",
      "outputs": [
        {
          "internalType": "bool",
          "name": "",
          "type": "bool"
        }
      ],
      "stateMutability": "view",
      "type": "function"
    },
    {
      "inputs": [],
      "name": "name",
      "outputs": [
        {
          "internalType": "string",
          "name": "",
          "type": "string"
        }
      ],
      "stateMutability": "view",
      "type": "function"
    },
    {
      "inputs": [],
      "name": "nextTokenId",
      "outputs": [
        {
          "internalType": "uint256",
          "name": "",
          "type": "uint256"
        }
      ],
      "stateMutability": "view",
      "type": "function"
    },
    {
      "inputs": [],
      "name": "owner",
      "outputs": [
        {
          "internalType": "address",
          "name": "",
          "type": "address"
        }
      ],
      "stateMutability": "view",
      "type": "function"
    },
    {
      "inputs": [
        {
          "internalType": "uint256",
          "name": "tokenId",
          "type": "uint256"
        }
      ],
      "name": "ownerOf",
      "outputs": [
        {
          "internalType": "address",
          "name": "",
          "type": "address"
        }
      ],
      "stateMutability": "view",
      "type": "function"
    },
    {
      "inputs": [],
      "name": "pause",
      "outputs": [],
      "stateMutability": "nonpayable",
      "type": "function"
    },
    {
      "inputs": [],
      "name": "paused",
      "outputs": [
        {
          "internalType": "bool",
          "name": "",
          "type": "bool"
        }
      ],
      "stateMutability": "view",
      "type": "function"
    },
    {
      "inputs": [],
      "name": "renounceOwnership",
      "outputs": [],
      "stateMutability": "nonpayable",
      "type": "function"
    },
    {
      "inputs": [],
      "name": "reveal",
      "outputs": [
        {
          "internalType": "bool",
          "name": "",
          "type": "bool"
        }
      ],
      "stateMutability": "view",
      "type": "function"
    },
    {
      "inputs": [],
      "name": "revealed",
      "outputs": [
        {
          "internalType": "bool",
          "name": "",
          "type": "bool"
        }
      ],
      "stateMutability": "view",
      "type": "function"
    },
    {
      "inputs": [
        {
          "internalType": "address",
          "name": "from",
          "type": "address"
        },
        {
          "internalType": "address",
          "name": "to",
          "type": "address"
        },
        {
          "internalType": "uint256",
          "name": "tokenId",
          "type": "uint256"
        }
      ],
      "name": "safeTransferFrom",
      "outputs": [],
      "stateMutability": "nonpayable",
      "type": "function"
    },
    {
      "inputs": [
        {
          "internalType": "address",
          "name": "from",
          "type": "address"
        },
        {
          "internalType": "address",
          "name": "to",
          "type": "address"
        },
        {
          "internalType": "uint256",
          "name": "tokenId",
          "type": "uint256"
        },
        {
          "internalType": "bytes",
          "name": "_data",
          "type": "bytes"
        }
      ],
      "name": "safeTransferFrom",
      "outputs": [],
      "stateMutability": "nonpayable",
      "type": "function"
    },
    {
      "inputs": [
        {
          "internalType": "address",
          "name": "operator",
          "type": "address"
        },
        {
          "internalType": "bool",
          "name": "approved",
          "type": "bool"
        }
      ],
      "name": "setApprovalForAll",
      "outputs": [],
      "stateMutability": "nonpayable",
      "type": "function"
    },
    {
      "inputs": [
        {
          "internalType": "string",
          "name": "baseURI_",
          "type": "string"
        }
      ],
      "name": "setBaseURI",
      "outputs": [],
      "stateMutability": "nonpayable",
      "type": "function"
    },
    {
      "inputs": [
        {
          "internalType": "uint256",
          "name": "_newPrice",
          "type": "uint256"
        }
      ],
      "name": "setPricePerNFT",
      "outputs": [],
      "stateMutability": "nonpayable",
      "type": "function"
    },
    {
      "inputs": [
        {
          "internalType": "bool",
          "name": "_revealed",
          "type": "bool"
        }
      ],
      "name": "setReveal",
      "outputs": [],
      "stateMutability": "nonpayable",
      "type": "function"
    },
    {
      "inputs": [
        {
          "internalType": "string",
          "name": "unrevealBaseURI_",
          "type": "string"
        }
      ],
      "name": "setUnrevealBaseURI",
      "outputs": [],
      "stateMutability": "nonpayable",
      "type": "function"
    },
    {
      "inputs": [
        {
          "internalType": "bytes4",
          "name": "interfaceId",
          "type": "bytes4"
        }
      ],
      "name": "supportsInterface",
      "outputs": [
        {
          "internalType": "bool",
          "name": "",
          "type": "bool"
        }
      ],
      "stateMutability": "view",
      "type": "function"
    },
    {
      "inputs": [],
      "name": "symbol",
      "outputs": [
        {
          "internalType": "string",
          "name": "",
          "type": "string"
        }
      ],
      "stateMutability": "view",
      "type": "function"
    },
    {
      "inputs": [
        {
          "internalType": "uint256",
          "name": "index",
          "type": "uint256"
        }
      ],
      "name": "tokenByIndex",
      "outputs": [
        {
          "internalType": "uint256",
          "name": "",
          "type": "uint256"
        }
      ],
      "stateMutability": "view",
      "type": "function"
    },
    {
      "inputs": [
        {
          "internalType": "address",
          "name": "owner",
          "type": "address"
        },
        {
          "internalType": "uint256",
          "name": "index",
          "type": "uint256"
        }
      ],
      "name": "tokenOfOwnerByIndex",
      "outputs": [
        {
          "internalType": "uint256",
          "name": "",
          "type": "uint256"
        }
      ],
      "stateMutability": "view",
      "type": "function"
    },
    {
      "inputs": [
        {
          "internalType": "uint256",
          "name": "tokenId",
          "type": "uint256"
        }
      ],
      "name": "tokenURI",
      "outputs": [
        {
          "internalType": "string",
          "name": "",
          "type": "string"
        }
      ],
      "stateMutability": "view",
      "type": "function"
    },
    {
      "inputs": [],
      "name": "totalSupply",
      "outputs": [
        {
          "internalType": "uint256",
          "name": "",
          "type": "uint256"
        }
      ],
      "stateMutability": "view",
      "type": "function"
    },
    {
      "inputs": [
        {
          "internalType": "address",
          "name": "from",
          "type": "address"
        },
        {
          "internalType": "address",
          "name": "to",
          "type": "address"
        },
        {
          "internalType": "uint256",
          "name": "tokenId",
          "type": "uint256"
        }
      ],
      "name": "transferFrom",
      "outputs": [],
      "stateMutability": "nonpayable",
      "type": "function"
    },
    {
      "inputs": [
        {
          "internalType": "address",
          "name": "newOwner",
          "type": "address"
        }
      ],
      "name": "transferOwnership",
      "outputs": [],
      "stateMutability": "nonpayable",
      "type": "function"
    },
    {
      "inputs": [],
      "name": "unpause",
      "outputs": [],
      "stateMutability": "nonpayable",
      "type": "function"
    }
  ],
  "bytecode": "0x6080604052600e805460ff191690553480156200001b57600080fd5b5060405162002c3138038062002c318339810160408190526200003e916200022b565b604080518082018252601081526f25b7b7b61025b7b6b7b2379021b63ab160811b6020808301918252835180850190945260038452624b4b4360e81b908401528151919291620000919160009162000185565b508051620000a790600190602084019062000185565b505050620000c4620000be6200012f60201b60201c565b62000133565b600b805460ff60a01b191690556001600160a01b038116620001035760405162461bcd60e51b8152600401620000fa906200025b565b60405180910390fd5b600e80546001600160a01b0390921661010002610100600160a81b0319909216919091179055620002cf565b3390565b600b80546001600160a01b038381166001600160a01b0319831681179093556040519116919082907f8be0079c531659141344cd1fd0a4f28419497f9722a3daafe3b4186f6b6457e090600090a35050565b828054620001939062000292565b90600052602060002090601f016020900481019282620001b7576000855562000202565b82601f10620001d257805160ff191683800117855562000202565b8280016001018555821562000202579182015b8281111562000202578251825591602001919060010190620001e5565b506200021092915062000214565b5090565b5b8082111562000210576000815560010162000215565b6000602082840312156200023d578081fd5b81516001600160a01b038116811462000254578182fd5b9392505050565b60208082526013908201527f7a65726f2077616c6c6574206164647265737300000000000000000000000000604082015260600190565b600281046001821680620002a757607f821691505b60208210811415620002c957634e487b7160e01b600052602260045260246000fd5b50919050565b61295280620002df6000396000f3fe6080604052600436106101945760003560e01c806301ffc9a71461019957806306fdde03146101cf578063081812fc146101f1578063095ea7b31461021e5780630e46e94d1461024057806318160ddd1461025357806323b872dd146102755780632a3f300c146102955780632f745c59146102b55780633f4ba83a146102d557806342842e0e146102ea5780634b6dcabd1461030a5780634cd0943b1461032a5780634f6ccce714610357578063518302271461037757806355f804b31461038c5780635ab3188f146103ac5780635c975abb146103cc5780636352211e146103e157806370a0823114610401578063715018a61461042157806375794a3c1461043657806383c4c00d1461044b5780638456cb59146104605780638da5cb5b1461047557806395d89b411461048a578063988bc5c21461049f578063a22cb465146104b4578063a475b5dd146104d4578063b88d4fde146104e9578063c733b17114610509578063c87b56dd1461051e578063cc9f01941461053e578063e985e9c51461055e578063f2fde38b1461057e575b600080fd5b3480156101a557600080fd5b506101b96101b4366004611f8c565b61059e565b6040516101c6919061212a565b60405180910390f35b3480156101db57600080fd5b506101e46105b1565b6040516101c69190612135565b3480156101fd57600080fd5b5061021161020c366004612009565b610643565b6040516101c6919061207c565b34801561022a57600080fd5b5061023e610239366004611f49565b61068f565b005b61023e61024e366004611f49565b610727565b34801561025f57600080fd5b506102686108b1565b6040516101c691906127a3565b34801561028157600080fd5b5061023e610290366004611e6d565b6108b7565b3480156102a157600080fd5b5061023e6102b0366004611f72565b6108ef565b3480156102c157600080fd5b506102686102d0366004611f49565b610941565b3480156102e157600080fd5b5061023e610993565b3480156102f657600080fd5b5061023e610305366004611e6d565b6109dc565b34801561031657600080fd5b5061023e610325366004611f49565b6109f7565b34801561033657600080fd5b5061034a610345366004611e21565b610ae0565b6040516101c691906120e6565b34801561036357600080fd5b50610268610372366004612009565b610b9f565b34801561038357600080fd5b506101b9610bfa565b34801561039857600080fd5b5061023e6103a7366004611fc4565b610c03565b3480156103b857600080fd5b5061023e6103c7366004611fc4565b610c59565b3480156103d857600080fd5b506101b9610cab565b3480156103ed57600080fd5b506102116103fc366004612009565b610cbb565b34801561040d57600080fd5b5061026861041c366004611e21565b610cf0565b34801561042d57600080fd5b5061023e610d34565b34801561044257600080fd5b50610268610d7d565b34801561045757600080fd5b50610268610d93565b34801561046c57600080fd5b5061023e610d99565b34801561048157600080fd5b50610211610de0565b34801561049657600080fd5b506101e4610def565b3480156104ab57600080fd5b5061034a610dfe565b3480156104c057600080fd5b5061023e6104cf366004611f20565b610eb9565b3480156104e057600080fd5b506101b9610f87565b3480156104f557600080fd5b5061023e610504366004611ea8565b610f90565b34801561051557600080fd5b50610268610fcf565b34801561052a57600080fd5b506101e4610539366004612009565b610fd5565b34801561054a57600080fd5b5061023e610559366004612009565b61106d565b34801561056a57600080fd5b506101b9610579366004611e3b565b6110b1565b34801561058a57600080fd5b5061023e610599366004611e21565b6110df565b60006105a982611150565b90505b919050565b6060600080546105c09061283a565b80601f01602080910402602001604051908101604052809291908181526020018280546105ec9061283a565b80156106395780601f1061060e57610100808354040283529160200191610639565b820191906000526020600020905b81548152906001019060200180831161061c57829003601f168201915b5050505050905090565b600061064e82611175565b6106735760405162461bcd60e51b815260040161066a90612546565b60405180910390fd5b506000908152600460205260409020546001600160a01b031690565b600061069a82610cbb565b9050806001600160a01b0316836001600160a01b031614156106ce5760405162461bcd60e51b815260040161066a9061268f565b806001600160a01b03166106e0611192565b6001600160a01b031614806106fc57506106fc81610579611192565b6107185760405162461bcd60e51b815260040161066a906123d5565b6107228383611196565b505050565b61072f610cab565b1561074c5760405162461bcd60e51b815260040161066a906123ab565b6000811161076c5760405162461bcd60e51b815260040161066a906126d0565b601481111561078d5760405162461bcd60e51b815260040161066a9061265f565b6001600160a01b0382166107b35760405162461bcd60e51b815260040161066a90612339565b600081600f546107c391906127d8565b9050803410156107e55760405162461bcd60e51b815260040161066a9061228f565b600e546040516001600160a01b0361010090920491909116903480156108fc02916000818181858888f19350505050158015610825573d6000803e3d6000fd5b5060005b8281101561087257600061083b610d7d565b9050610857858260405180602001604052806000815250611204565b61085f611237565b508061086a81612875565b915050610829565b507f534ce981a3e4ab11c543920fe3818d892a4e1fcd00d44859c2d9677d18ea17a083836040516108a49291906120cd565b60405180910390a1505050565b60085490565b6108c86108c2611192565b8261124e565b6108e45760405162461bcd60e51b815260040161066a90612706565b6107228383836112d3565b6108f7611192565b6001600160a01b0316610908610de0565b6001600160a01b03161461092e5760405162461bcd60e51b815260040161066a90612592565b600e805460ff1916911515919091179055565b600061094c83610cf0565b821061096a5760405162461bcd60e51b815260040161066a90612176565b506001600160a01b03919091166000908152600660209081526040808320938352929052205490565b61099b611192565b6001600160a01b03166109ac610de0565b6001600160a01b0316146109d25760405162461bcd60e51b815260040161066a90612592565b6109da6113ee565b565b61072283838360405180602001604052806000815250610f90565b6109ff611192565b6001600160a01b0316610a10610de0565b6001600160a01b031614610a365760405162461bcd60e51b815260040161066a90612592565b60008111610a565760405162461bcd60e51b815260040161066a906126d0565b60005b81811015610aa2576000610a6b610d7d565b9050610a87848260405180602001604052806000815250611204565b610a8f611237565b5080610a9a81612875565b915050610a59565b507fcb18d05a153858255021777f6affd00f88a682d88708c2e5d6ca4421f71b2a208282604051610ad49291906120cd565b60405180910390a15050565b60606000610aed83610cf0565b6001600160401b03811115610b1257634e487b7160e01b600052604160045260246000fd5b604051908082528060200260200182016040528015610b3b578160200160208202803683370190505b50905060005b610b4a84610cf0565b811015610b9857610b5b8482610941565b828281518110610b7b57634e487b7160e01b600052603260045260246000fd5b602090810291909101015280610b9081612875565b915050610b41565b5092915050565b6000610ba96108b1565b8210610bc75760405162461bcd60e51b815260040161066a90612757565b60088281548110610be857634e487b7160e01b600052603260045260246000fd5b90600052602060002001549050919050565b600e5460ff1681565b610c0b611192565b6001600160a01b0316610c1c610de0565b6001600160a01b031614610c425760405162461bcd60e51b815260040161066a90612592565b8051610c5590600c906020840190611cf2565b5050565b610c61611192565b6001600160a01b0316610c72610de0565b6001600160a01b031614610c985760405162461bcd60e51b815260040161066a90612592565b8051610c5590600d906020840190611cf2565b600b54600160a01b900460ff1690565b6000818152600260205260408120546001600160a01b0316806105a95760405162461bcd60e51b815260040161066a90612477565b60006001600160a01b038216610d185760405162461bcd60e51b815260040161066a9061242d565b506001600160a01b031660009081526003602052604090205490565b610d3c611192565b6001600160a01b0316610d4d610de0565b6001600160a01b031614610d735760405162461bcd60e51b815260040161066a90612592565b6109da600061145f565b60006010546001610d8e91906127ac565b905090565b60105490565b610da1611192565b6001600160a01b0316610db2610de0565b6001600160a01b031614610dd85760405162461bcd60e51b815260040161066a90612592565b6109da6114b1565b600b546001600160a01b031690565b6060600180546105c09061283a565b60606000610e0a6108b1565b6001600160401b03811115610e2f57634e487b7160e01b600052604160045260246000fd5b604051908082528060200260200182016040528015610e58578160200160208202803683370190505b50905060005b610e666108b1565b811015610eb357610e7681610b9f565b828281518110610e9657634e487b7160e01b600052603260045260246000fd5b602090810291909101015280610eab81612875565b915050610e5e565b50905090565b610ec1611192565b6001600160a01b0316826001600160a01b03161415610ef25760405162461bcd60e51b815260040161066a90612306565b8060056000610eff611192565b6001600160a01b03908116825260208083019390935260409182016000908120918716808252919093529120805460ff191692151592909217909155610f43611192565b6001600160a01b03167f17307eab39ab6107e8899845ad3d59bd9653f200f220920489ca2b5937696c3183604051610f7b919061212a565b60405180910390a35050565b600e5460ff1690565b610fa1610f9b611192565b8361124e565b610fbd5760405162461bcd60e51b815260040161066a90612706565b610fc984848484611512565b50505050565b600f5490565b600e5460609060ff1661106457610feb82611175565b6110075760405162461bcd60e51b815260040161066a906124f5565b6000611011611545565b90506000815111611031576040518060200160405280600081525061105c565b8061103b84611554565b60405160200161104c92919061204d565b6040516020818303038152906040525b9150506105ac565b6105a98261166e565b611075611192565b6001600160a01b0316611086610de0565b6001600160a01b0316146110ac5760405162461bcd60e51b815260040161066a90612592565b600f55565b6001600160a01b03918216600090815260056020908152604080832093909416825291909152205460ff1690565b6110e7611192565b6001600160a01b03166110f8610de0565b6001600160a01b03161461111e5760405162461bcd60e51b815260040161066a90612592565b6001600160a01b0381166111445760405162461bcd60e51b815260040161066a90612213565b61114d8161145f565b50565b60006001600160e01b0319821663780e9d6360e01b14806105a957506105a982611787565b6000908152600260205260409020546001600160a01b0316151590565b3390565b600081815260046020526040902080546001600160a01b0319166001600160a01b03841690811790915581906111cb82610cbb565b6001600160a01b03167f8c5be1e5ebec7d5bd14f71427d1e84f3dd0314c0f7b2291e5b200ac8c7c3b92560405160405180910390a45050565b61120e83836117c7565b61121b6000848484611894565b6107225760405162461bcd60e51b815260040161066a906121c1565b6010805490600061124783612875565b9190505550565b600061125982611175565b6112755760405162461bcd60e51b815260040161066a9061235f565b600061128083610cbb565b9050806001600160a01b0316846001600160a01b031614806112bb5750836001600160a01b03166112b084610643565b6001600160a01b0316145b806112cb57506112cb81856110b1565b949350505050565b826001600160a01b03166112e682610cbb565b6001600160a01b03161461130c5760405162461bcd60e51b815260040161066a906125c7565b6001600160a01b0382166113325760405162461bcd60e51b815260040161066a906122c2565b61133d8383836119af565b611348600082611196565b6001600160a01b03831660009081526003602052604081208054600192906113719084906127f7565b90915550506001600160a01b038216600090815260036020526040812080546001929061139f9084906127ac565b909155505060008181526002602052604080822080546001600160a01b0319166001600160a01b0386811691821790925591518493918716916000805160206128fd83398151915291a4505050565b6113f6610cab565b6114125760405162461bcd60e51b815260040161066a90612148565b600b805460ff60a01b191690557f5db9ee0a495bf2e6ff9c91a7834c1ba4fdd244a5e8aa4e537bd38aeae4b073aa611448611192565b604051611455919061207c565b60405180910390a1565b600b80546001600160a01b038381166001600160a01b0319831681179093556040519116919082907f8be0079c531659141344cd1fd0a4f28419497f9722a3daafe3b4186f6b6457e090600090a35050565b6114b9610cab565b156114d65760405162461bcd60e51b815260040161066a906123ab565b600b805460ff60a01b1916600160a01b1790557f62e78cea01bee320cd4e420270b5ea74000d11b0c9f74754ebdbfc544b05a258611448611192565b61151d8484846112d3565b61152984848484611894565b610fc95760405162461bcd60e51b815260040161066a906121c1565b6060600d80546105c09061283a565b60608161157957506040805180820190915260018152600360fc1b60208201526105ac565b8160005b81156115a3578061158d81612875565b915061159c9050600a836127c4565b915061157d565b6000816001600160401b038111156115cb57634e487b7160e01b600052604160045260246000fd5b6040519080825280601f01601f1916602001820160405280156115f5576020820181803683370190505b5090505b84156112cb5761160a6001836127f7565b9150611617600a86612890565b6116229060306127ac565b60f81b81838151811061164557634e487b7160e01b600052603260045260246000fd5b60200101906001600160f81b031916908160001a905350611667600a866127c4565b94506115f9565b606061167982611175565b6116955760405162461bcd60e51b815260040161066a906124f5565b6000828152600a6020526040812080546116ae9061283a565b80601f01602080910402602001604051908101604052809291908181526020018280546116da9061283a565b80156117275780601f106116fc57610100808354040283529160200191611727565b820191906000526020600020905b81548152906001019060200180831161170a57829003601f168201915b5050505050905060006117386119ba565b905080516000141561174c575090506105ac565b81511561177e57808260405160200161176692919061204d565b604051602081830303815290604052925050506105ac565b6112cb846119c9565b60006001600160e01b031982166380ac58cd60e01b14806117b857506001600160e01b03198216635b5e139f60e01b145b806105a957506105a982611a4c565b6001600160a01b0382166117ed5760405162461bcd60e51b815260040161066a906124c0565b6117f681611175565b156118135760405162461bcd60e51b815260040161066a90612259565b61181f600083836119af565b6001600160a01b03821660009081526003602052604081208054600192906118489084906127ac565b909155505060008181526002602052604080822080546001600160a01b0319166001600160a01b03861690811790915590518392906000805160206128fd833981519152908290a45050565b60006118a8846001600160a01b0316611a65565b156119a457836001600160a01b031663150b7a026118c4611192565b8786866040518563ffffffff1660e01b81526004016118e69493929190612090565b602060405180830381600087803b15801561190057600080fd5b505af1925050508015611930575060408051601f3d908101601f1916820190925261192d91810190611fa8565b60015b61198a573d80801561195e576040519150601f19603f3d011682016040523d82523d6000602084013e611963565b606091505b5080516119825760405162461bcd60e51b815260040161066a906121c1565b805181602001fd5b6001600160e01b031916630a85bd0160e11b1490506112cb565b506001949350505050565b610722838383611a6b565b6060600c80546105c09061283a565b60606119d482611175565b6119f05760405162461bcd60e51b815260040161066a90612610565b60006119fa6119ba565b90506000815111611a1a5760405180602001604052806000815250611a45565b80611a2484611554565b604051602001611a3592919061204d565b6040516020818303038152906040525b9392505050565b6001600160e01b031981166301ffc9a760e01b14919050565b3b151590565b611a76838383610722565b6001600160a01b038316611a9257611a8d81611af4565b611ab5565b816001600160a01b0316836001600160a01b031614611ab557611ab58382611b38565b6001600160a01b038216611ad157611acc81611bd5565b610722565b826001600160a01b0316826001600160a01b031614610722576107228282611cae565b600880546000838152600960205260408120829055600182018355919091527ff3f7a9fe364faab93b216da50a3214154f22a0a2b415b23a84c8169e8b636ee30155565b60006001611b4584610cf0565b611b4f91906127f7565b600083815260076020526040902054909150808214611ba2576001600160a01b03841660009081526006602090815260408083208584528252808320548484528184208190558352600790915290208190555b5060009182526007602090815260408084208490556001600160a01b039094168352600681528383209183525290812055565b600854600090611be7906001906127f7565b60008381526009602052604081205460088054939450909284908110611c1d57634e487b7160e01b600052603260045260246000fd5b906000526020600020015490508060088381548110611c4c57634e487b7160e01b600052603260045260246000fd5b6000918252602080832090910192909255828152600990915260408082208490558582528120556008805480611c9257634e487b7160e01b600052603160045260246000fd5b6001900381819060005260206000200160009055905550505050565b6000611cb983610cf0565b6001600160a01b039093166000908152600660209081526040808320868452825280832085905593825260079052919091209190915550565b828054611cfe9061283a565b90600052602060002090601f016020900481019282611d205760008555611d66565b82601f10611d3957805160ff1916838001178555611d66565b82800160010185558215611d66579182015b82811115611d66578251825591602001919060010190611d4b565b50611d72929150611d76565b5090565b5b80821115611d725760008155600101611d77565b60006001600160401b0380841115611da557611da56128d0565b604051601f8501601f191681016020018281118282101715611dc957611dc96128d0565b604052848152915081838501861015611de157600080fd5b8484602083013760006020868301015250509392505050565b80356001600160a01b03811681146105ac57600080fd5b803580151581146105ac57600080fd5b600060208284031215611e32578081fd5b611a4582611dfa565b60008060408385031215611e4d578081fd5b611e5683611dfa565b9150611e6460208401611dfa565b90509250929050565b600080600060608486031215611e81578081fd5b611e8a84611dfa565b9250611e9860208501611dfa565b9150604084013590509250925092565b60008060008060808587031215611ebd578081fd5b611ec685611dfa565b9350611ed460208601611dfa565b92506040850135915060608501356001600160401b03811115611ef5578182fd5b8501601f81018713611f05578182fd5b611f1487823560208401611d8b565b91505092959194509250565b60008060408385031215611f32578182fd5b611f3b83611dfa565b9150611e6460208401611e11565b60008060408385031215611f5b578182fd5b611f6483611dfa565b946020939093013593505050565b600060208284031215611f83578081fd5b611a4582611e11565b600060208284031215611f9d578081fd5b8135611a45816128e6565b600060208284031215611fb9578081fd5b8151611a45816128e6565b600060208284031215611fd5578081fd5b81356001600160401b03811115611fea578182fd5b8201601f81018413611ffa578182fd5b6112cb84823560208401611d8b565b60006020828403121561201a578081fd5b5035919050565b6000815180845261203981602086016020860161280e565b601f01601f19169290920160200192915050565b6000835161205f81846020880161280e565b83519083019061207381836020880161280e565b01949350505050565b6001600160a01b0391909116815260200190565b6001600160a01b03858116825284166020820152604081018390526080606082018190526000906120c390830184612021565b9695505050505050565b6001600160a01b03929092168252602082015260400190565b6020808252825182820181905260009190848201906040850190845b8181101561211e57835183529284019291840191600101612102565b50909695505050505050565b901515815260200190565b600060208252611a456020830184612021565b60208082526014908201527314185d5cd8589b194e881b9bdd081c185d5cd95960621b604082015260600190565b6020808252602b908201527f455243373231456e756d657261626c653a206f776e657220696e646578206f7560408201526a74206f6620626f756e647360a81b606082015260800190565b60208082526032908201527f4552433732313a207472616e7366657220746f206e6f6e20455243373231526560408201527131b2b4bb32b91034b6b83632b6b2b73a32b960711b606082015260800190565b60208082526026908201527f4f776e61626c653a206e6577206f776e657220697320746865207a65726f206160408201526564647265737360d01b606082015260800190565b6020808252601c908201527b115490cdcc8c4e881d1bdad95b88185b1c9958591e481b5a5b9d195960221b604082015260600190565b602080825260199082015278125b9cdd59999a58da595b9d08115512081c9958d95a5d9959603a1b604082015260600190565b60208082526024908201527f4552433732313a207472616e7366657220746f20746865207a65726f206164646040820152637265737360e01b606082015260800190565b60208082526019908201527822a9219b99189d1030b8383937bb32903a379031b0b63632b960391b604082015260600190565b6020808252600c908201526b5a65726f206164647265737360a01b604082015260600190565b6020808252602c908201527f4552433732313a206f70657261746f7220717565727920666f72206e6f6e657860408201526b34b9ba32b73a103a37b5b2b760a11b606082015260800190565b60208082526010908201526f14185d5cd8589b194e881c185d5cd95960821b604082015260600190565b60208082526038908201527f4552433732313a20617070726f76652063616c6c6572206973206e6f74206f776040820152771b995c881b9bdc88185c1c1c9bdd995908199bdc88185b1b60421b606082015260800190565b6020808252602a908201527f4552433732313a2062616c616e636520717565727920666f7220746865207a65604082015269726f206164647265737360b01b606082015260800190565b60208082526029908201527f4552433732313a206f776e657220717565727920666f72206e6f6e657869737460408201526832b73a103a37b5b2b760b91b606082015260800190565b6020808252818101527f4552433732313a206d696e7420746f20746865207a65726f2061646472657373604082015260600190565b60208082526031908201527f45524337323155524953746f726167653a2055524920717565727920666f72206040820152703737b732bc34b9ba32b73a103a37b5b2b760791b606082015260800190565b6020808252602c908201527f4552433732313a20617070726f76656420717565727920666f72206e6f6e657860408201526b34b9ba32b73a103a37b5b2b760a11b606082015260800190565b6020808252818101527f4f776e61626c653a2063616c6c6572206973206e6f7420746865206f776e6572604082015260600190565b60208082526029908201527f4552433732313a207472616e73666572206f6620746f6b656e2074686174206960408201526839903737ba1037bbb760b91b606082015260800190565b6020808252602f908201527f4552433732314d657461646174613a2055524920717565727920666f72206e6f60408201526e3732bc34b9ba32b73a103a37b5b2b760891b606082015260800190565b60208082526016908201527543616e277420627579206f766572203230204e46547360501b604082015260600190565b60208082526021908201527f4552433732313a20617070726f76616c20746f2063757272656e74206f776e656040820152603960f91b606082015260800190565b6020808252601c908201527b53686f756c642062652074686520706f7369746976652076616c756560201b604082015260600190565b60208082526031908201527f4552433732313a207472616e736665722063616c6c6572206973206e6f74206f6040820152701ddb995c881b9bdc88185c1c1c9bdd9959607a1b606082015260800190565b6020808252602c908201527f455243373231456e756d657261626c653a20676c6f62616c20696e646578206f60408201526b7574206f6620626f756e647360a01b606082015260800190565b90815260200190565b600082198211156127bf576127bf6128a4565b500190565b6000826127d3576127d36128ba565b500490565b60008160001904831182151516156127f2576127f26128a4565b500290565b600082821015612809576128096128a4565b500390565b60005b83811015612829578181015183820152602001612811565b83811115610fc95750506000910152565b60028104600182168061284e57607f821691505b6020821081141561286f57634e487b7160e01b600052602260045260246000fd5b50919050565b6000600019821415612889576128896128a4565b5060010190565b60008261289f5761289f6128ba565b500690565b634e487b7160e01b600052601160045260246000fd5b634e487b7160e01b600052601260045260246000fd5b634e487b7160e01b600052604160045260246000fd5b6001600160e01b03198116811461114d57600080fdfeddf252ad1be2c89b69c2b068fc378daa952ba7f163c4a11628f55a4df523b3efa26469706673582212203736bdde0e9e3e7039d232be42a7756b7b1edb0d073f5d9babbceb71033be9fd64736f6c63430008000033",
  "linkReferences": {},
  "deployedLinkReferences": {}
}